:020000040800F2
:10000000C80B0020010100087F110008FF10000844
:100010007D110008990100089D15000800000000EE
:10002000000000000000000000000000A311000814
:100030009B01000800000000A1110008A5110008A4
:100040001B0100081B0100081B0100081B01000820
:100050001B0100081B0100081B0100081B01000810
:100060001B0100081B0100081B0100081B01000800
:100070001B0100081B0100081B0100081B010008F0
:100080001B0100081B0100081B0100081B010008E0
:100090001B0100081B0100081B0100081B010008D0
:1000A0001B0100081B0100081B0100084112000889
:1000B0001B0100081B0100081B0100081B010008B0
:1000C0001B0100081B0100081B0100081B010008A0
:1000D0001B0100081B0100081B0100081B01000890
:1000E0001B0100081B0100081B010008DFF80CD0F1
:1000F00000F040F8004800474D170008C80B0020EA
:100100000648804706480047FEE7FEE7FEE7FEE7B1
:10011000FEE7FEE7FEE7FEE7FEE7FEE7F91100086F
:10012000ED000008D2B201E000F8012B491EFBD21D
:1001300070470022F6E710B513460A4604461946F2
:10014000FFF7F0FF204610BD30B50B4601460020FA
:100150002022012409E021FA02F59D4205D303FA89
:1001600002F5491B04FA02F52844151EA2F101020A
:10017000F1DC30BD064C074D06E0E06840F00103BD
:1001800094E8070098471034AC42F6D3FFF7B2FF6B
:100190001018000830180008FEE770472DE9F84FE6
:1001A000DFF890A100220AF1040B144601274FF05A
:1001B0000F090BF1040E00BF0B6807FA04F52B4082
:1001C000AB4274D1DFF870C14E68A6EB0C086645EF
:1001D0002BD00DDC032E34D005DC36B3012E19D024
:1001E000022E2FD11BE0112E16D0122E2AD119E08B
:1001F000B8F5881F19D006DCB8F5803F15D0B8F5E2
:10020000801F1FD111E0B8F5001F0ED0B8F5041FF4
:1002100018D10AE0CA6815E0CA68121D12E0CA685F
:1002200008320FE0CA680C320CE08A682AB1012A51
:100230004FF0080203D0456104E0042202E00561AA
:1002400000E00022FF2B01D8064601E000F1040681
:100250004FEA840501D9A5F12005D6F800C009FAB6
:1002600005F82CEA080C02FA05F54CEA050CC6F86C
:1002700000C04D68ED0057D5304DAE6946F001061F
:10028000AE61AD6924F0030605F0010500952C4D23
:1002900006EB050CDCF80850A6074FEA167809FAB9
:1002A00008F6B543274EB04202D1002610E03BE0ED
:1002B000254EB04201D101260AE0244EB04201D1C0
:1002C000022605E0224EB04201D1032600E00426BA
:1002D00006FA08F62E43CCF808604D68DAF800609C
:1002E000ED03554601D51E4300E09E432E604D6848
:1002F000DBF80060AD035D4601D51E4300E09E4380
:100300002E604D68DEF80060ED02754601D51E4393
:1003100000E09E432E604D68AD020E4D2E6801D563
:100320001E4300E09E432E60641C102CFFF444AF7B
:10033000BDE8F88F000401400000111000100240D9
:100340000000014000080140000C01400010014085
:10035000001401400C04014001488068704700000F
:1003600018000020024881680278114481607047BB
:1003700018000020074810B5016841F01001016025
:10038000032000F073F8002000F006F800F024F8D5
:10039000002010BD0020024070B50D4D04464FF402
:1003A0007A712878B1FBF0F00A490968B1FBF0F0E6
:1003B00000F0FCFA48B9102C07D200222146501E4A
:1003C00000F034F800206C6070BD012070BD0000AA
:1003D00018000020240000200C4808B5816941F075
:1003E00001018161816901F001010091C16941F060
:1003F0008051C161C06900F080500090044841689C
:1004000021F0E06141F08061416008BD00100240D0
:100410000000014000F01F020121914040098000CE
:1004200000F1E020C0F8001170470000F0B40E4B5E
:100430001B680C46C3F30223C3F10705042D00D942
:100440000425191D072901D2002300E0DB1E012627
:1004500006FA05F1491E214099409E40761E16403D
:100460003143F0BC00F08CBE0CED00E0064900F01A
:10047000070208684FF6FF03184040EA0220034ACB
:1004800010430860704700000CED00E00000FA0522
:100490002DE9F047DFF8548105460E46D8F80000F4
:1004A00000F00700B0420CD2D8F8001021F007018C
:1004B0003143C8F80010D8F8000000F00700B0423F
:1004C0006FD128684A4C810712D5400703D5606870
:1004D00040F4E06060602878000703D5606840F46D
:1004E000605060606068A96820F0F00008436060B8
:1004F0002878C00744D06868012816D021680228EF
:1005000016D0890700294CDA616821F00301014304
:100510006160FFF721FF6968074641F288300129D1
:100520000ED00229814618D026E021688903E9E728
:100530008901E7E7FFF710FFC11B494501D918E022
:1005400081466068C0F381000128F3D118E000BF44
:10055000FFF702FFC11B49450BD86068C0F381005B
:100560000228F5D10CE000BFFFF7F6FEC11B49459C
:1005700002D90320BDE8F087606810F00C0FF3D1BA
:10058000D8F80010404601F00701B1420BD90168CC
:1005900021F0070131430160006800F00700B0421C
:1005A00001D00120E6E72878400705D56068E968B2
:1005B00020F4E060084360602878000706D5606892
:1005C000296920F4605040EAC100606000F036F80C
:1005D0006168084AC1F30311515CC84006490860CC
:1005E0000020FFF7D9FE0020C4E7000000200240F1
:1005F00000100240F81700082400002004480549B4
:1006000000684968044AC1F30221515CC840704740
:100610002400002000100240081800080448054982
:1006200000684968044AC1F3C221515CC840704760
:1006300024000020001002400818000812A185B014
:100640000FC98DE80F0014A0144A00680490516887
:10065000134801F00C03042B10D0082B0ED1C1F36A
:100660008343C9031DF803000AD5516804AAC1F3E6
:100670004041515C0A4A5043B0FBF1F005B070476D
:1006800008494843FAE70000020304050607080981
:100690000A0B0C0D0E0F101001020000001002409A
:1006A00000127A0000093D002DE9F84F0446007859
:1006B000B94DC00748D06868C0F38100012807D051
:1006C0006868C0F38100022809D16868C00306D5B4
:1006D0002868800338D5606800286FD034E06068EF
:1006E000B0F5803F0BD010B1B0F5A02F11D0286825
:1006F00020F480302860286820F4802002E02868F8
:1007000040F480302860606888B1FFF725FE064617
:1007100009E0286840F480202860F0E7FFF71CFE1D
:10072000801B642875D828688003F7D50CE0FFF794
:1007300013FE064605E000BFFFF70EFE801B64288F
:10074000F0D828688003F7D42078944E80074FF0C3
:1007500001094FF000083BD5686810F00C0F07D076
:100760006868C0F38100022809D16868C00306D414
:100770002868800714D5206901281FD110E020695E
:10078000B0B1C6F80090FFF7E7FD074605E000BFEF
:10079000FFF7E2FDC01B0228C4D828688007F7D500
:1007A0002868616920F0F80040EAC10028600FE085
:1007B000C6F80080FFF7D0FD074606E0E9E000BF7D
:1007C000FFF7CAFDC01B022823D828688007F7D48A
:1007D000207800072CD57248A169D9B1C0F80090E3
:1007E000FFF7BAFD074604E0FFF7B6FDC01B02287D
:1007F0000FD8686A8007F7D56A484FF4FA51006845
:10080000B0FBF1F0009000BF0098411E0091FAD2B9
:100810000EE080E0C0F80080FFF79EFD074604E090
:10082000FFF79AFDC01B022875D8686A8007F7D4C5
:100830002078400760D5E8690027C00008D4E8693F
:1008400040F08050E861E869012700F08050009096
:1008500055480168C90513D40168834641F4807185
:100860000160FFF779FD824606E000BFFFF774FDE7
:10087000A0EB0A0064284ED8DBF80000C005F5D5CF
:10088000E06801280AD008B1052813D0286A20F0B2
:1008900001002862286A20F0040002E0286A40F083
:1008A00001002862E06841F2883B98B1FFF754FDEF
:1008B00082460BE0286A40F004002862EEE700BFA1
:1008C000FFF74AFDA0EB0A0159455AD8286A80076C
:1008D000F6D50CE0FFF740FD824605E0FFF73CFD52
:1008E000A0EB0A0159454CD8286A8007F6D41FB1FD
:1008F000E86920F08050E861E06988B36968C1F375
:100900008101022945D00228C6F8608004D0FFF793
:1009100023FD044638E034E0FFF71EFD074604E0FF
:10092000FFF71AFDC01B02282BD828688001F7D4D6
:10093000206AB0F5803F05D16868A16820F40030D6
:1009400008436860D4E908010843696821F4741118
:1009500008436860C6F86090FFF7FEFC044606E0B6
:1009600015E000BFFFF7F8FC001B022809D8286833
:100970008001F7D50BE000BFFFF7EEFC001B02285B
:1009800002D90320BDE8F88F28688001F4D4002044
:10099000F8E70120F6E700000010024000004242A4
:1009A00080044242240000200070004010B5401E28
:1009B000B0F1807F01D3012010BD4FF0E0246061D1
:1009C0000F21601700F0DCFB0020A06107202061F0
:1009D000002010BD7047704730B590F83C20012AC8
:1009E00020D0012280F83C20022380F83D300368AB
:1009F0005C6824F070045C6003685C680D682C43DC
:100A00005C6003689C6824F080049C6003689C68B8
:100A100049680C439C6080F83D20002180F83C1020
:100A2000084630BD022030BD10B5040003D094F854
:100A30003D0010B107E0012010BD002084F83C000B
:100A4000204600F00DF8022084F83D00211D2068AA
:100A500000F0FCFB012084F83D00002010BD0000E8
:100A600000B585B0002100910191029103910068C9
:100A70001349884221D11348816941F400618161A1
:100A8000816901F400610491816941F0040181618F
:100A90008069694600F0040004904FF48070009073
:100AA000012002900848FFF779FB002211461B2025
:100AB000FFF7BCFC1B20FFF7ADFC05B000BD00003C
:100AC000002C0140001002400008014070B50446AF
:100AD00090F83C00012817D0012584F83C500220F2
:100AE00084F83D002068826822F0770222F47F4279
:100AF00082600868502837D00DDC202859D005DCEA
:100B000088B3102841D151E0022070BD302853D065
:100B100040283AD13FE060282ED070280BD0B0F5A5
:100B2000805F03D0B0F5005F2FD110E020688168AE
:100B300021F0070115E0CB68D1E90121206800F020
:100B4000C6FB2168886840F0770088601DE0CB68AC
:100B5000D1E90121206800F0BAFB2068816841F4E6
:100B60008041816011E01EE0CA684968206800F099
:100B7000C0FB5021206806E0CA684968206800F080
:100B8000F5FB6021206800F0ACFB84F83D500020AC
:100B900084F83C0070BDCA684968206800F0A9FB71
:100BA00040212068EFE700212068ECE71021206851
:100BB000E9E720212068E6E730212068E3E700002C
:100BC00010B5154C218801294FF0000108D000F024
:100BD000ACF9E060A168884207D9A0EB01000CE005
:100BE00000F0A3F9A060012013E007D24FF6FF72D6
:100BF000A2EB0101084400F101002061A088618896
:100C0000884205D2054A216942F82010401CA08084
:100C10000020208010BD000000000020A80000205F
:100C20002DE9F041044690F83C000D4601283BD0E8
:100C3000012684F83C60022084F83D009AB3042A1F
:100C400044D02068082A53D0D5E90027E968036A10
:100C500023F480530362D0F81CC0036A2CF4407C58
:100C60004CEA07274FF6FF7C27F470470CEA013166
:100C70003943770323F4005307EA02321A43C16170
:100C800002622068C16921F44061C1612068C169C4
:100C9000AA6841EA0221C16184F83D60002084F81D
:100CA0003C00BDE8F08101E00220FAE7D5E900123E
:100CB000EB68206800F02EFB2068816921F00C01B0
:100CC000816120688169AA6811430FE0D5E90012AB
:100CD000EB68206800F05CFB2068816921F44061CA
:100CE000816120688169AA6841EA02218161D3E7B4
:100CF000D5E9002C2F7B016A21F480710162C16962
:100D0000036A21F0030141EA0C0121F0F00C3907DC
:100D10004FF400774CEA116123F4007307EA0222D2
:100D20001A43C16102622068C16921F00C01C161EE
:100D30002068C169AA681143ADE710B5040003D06B
:100D400094F83D0010B107E0012010BD002084F8A8
:100D50003C00204600F00CF8022084F83D00211DE4
:100D6000206800F073FA012084F83D00002010BDD7
:100D7000704710B50268044631B1042908D008292B
:100D800015D00C2908D116E0D06840F0020002E02E
:100D9000D06840F00400D0600122206800F08CFA96
:100DA0002068016841F001010160002010BDD06899
:100DB00040F00800EFE7D06840F01000EBE770B5B6
:100DC0000446006801694FF00005C943890715D43E
:100DD000C168C943890711D4E91E01610120207748
:100DE000206880698007204602D0FFF7E9FE04E012
:100DF00000F098F8204600F096F825772068016901
:100E0000C943490717D4C168C943490713D46FF0D0
:100E100004010161022020772068806910F4407F7E
:100E2000204602D0FFF7CCFE04E000F07BF820461D
:100E300000F079F8257720680169C943090716D4BD
:100E4000C168C943090712D46FF008010161042089
:100E500020772068C0698007204602D0FFF7B0FEE7
:100E600004E000F05FF8204600F05DF82577206888
:100E70000169C943C90617D4C168C943C90613D457
:100E80006FF010010161082020772068C06910F41C
:100E9000407F204602D0FFF793FE04E000F042F8C6
:100EA000204600F040F8257720680169C943C9074A
:100EB00008D1C168C943C90704D1891E0161204610
:100EC00000F032F820680169C943090609D4C168F5
:100ED000C943090605D46FF0800101612046FFF780
:100EE00079FD20680169C943490609D4C168C9432D
:100EF000490605D46FF040010161204600F037F843
:100F000020680169C94389060BD4C168C9438906B1
:100F100007D46FF0200101612046BDE87040FFF763
:100F20005ABD70BD70477047704790F83C30002242
:100F3000012B0AD0012380F83C3041B1042909D0AB
:100F400008290AD00C290DD10AE002207047016857
:100F50004A6B07E001688A6B04E00168CA6B01E034
:100F600001680A6C002180F83C10104670477047F9
:100F700070B5040004D094F83900002510B106E0E3
:100F8000012070BD84F83850204600F023F824205A
:100F900084F839002068C16821F40051C1602046FE
:100FA00000F012FA2068016921F490410161206883
:100FB000416921F02A0141612068C16841F4005172
:100FC000C160E563202084F8390084F83A000020ED
:100FD00070BD000030B585B00024009401940294E7
:100FE000039400681449884224D11448816941F46B
:100FF00080418161816901F480410491816941F0FE
:101000000401816180690E4D00F0040004904FF4EA
:10101000007000900220019003200390694628464A
:10102000FFF7BCF82815CDE900046946284602946C
:10103000FFF7B4F805B030BD0038014000100240A1
:10104000000801402DE9F843044690F839001F4696
:1010500016460D46202850D1A5B19EB194F838000F
:1010600001284AD0012084F838004FF00008C4F865
:101070003C80212084F83900FFF76EF9A684814670
:10108000E68426E00120BDE8F883E08C401EE08481
:10109000A0684B46B0F5805F4FF000024FF0800132
:1010A0002046009703D000F047FAE8B90DE000F0C1
:1010B00043FAC8B928882168C0F30800486020694D
:1010C00008B16D1C05E0AD1C03E0216815F8010BAB
:1010D0004860E08C0028D8D14B46002240212046B1
:1010E000009700F029FA08B10320CCE7202084F80B
:1010F000390084F838800020C5E70220C3E7FEE706
:1011000010B58AB000241C480494059406940794F2
:101110000894099400940194029416490394016080
:101120003221C0E901144FF6FF71C0E90314802198
:10113000C0E90541FFF778FC4FF48050049004A902
:101140000D48FFF7C3FC0C48FFF7F7FD089408A90A
:1011500009480994FFF740FC0A2000900120CDE9DE
:1011600001040022694604480394FFF759FD0AB0C0
:1011700010BD0000002C014028000020FEE7704751
:101180000907090E002806DA00F00F0000F1E02040
:1011900080F8141D704700F1E02080F800147047BB
:1011A00070477047FFF7DEB830B58FB0282168462A
:1011B000FEF7BFFF14210AA8FEF7BBFF01210804B8
:1011C000CDE900100024029402250491CDE90750D6
:1011D0004FF4E01009906846FFF766FA0F20CDE95A
:1011E0000A056802CDE90C4002210AA80E94FFF717
:1011F0004FF90FB030BD00000D48016841F001010A
:10120000016041680B4A1140416001680A4A11407F
:101210000160016821F480210160416821F4FE0130
:1012200041604FF41F0181600449C00308607047AA
:10123000001002400000FFF8FFFFF6FE08ED00E09E
:101240000148FFF7BCBD000028000020F0B502688F
:10125000164B174C174D4FF08047984205D0B842B7
:1012600003D0A04201D0A84203D122F070064A6800
:101270003243984205D0B84203D0A04201D0A842E0
:1012800003D122F44074CA68224322F080044A69E0
:10129000224302608A68C2620A688262984201D16F
:1012A0000969016301214161F0BD0000002C01408A
:1012B000000400400008004010B50123046A8B4080
:1012C0009C430462036A8A401343036210BD10B555
:1012D000846842EA032224F47F440A432243826062
:1012E00010BD826822F070020A4342F0070181605B
:1012F000704710B5036A046A24F00104046284692B
:1013000024F0F00444EA021423F00A020A43846140
:10131000026210BD70B5046A24F00104046284699D
:10132000056A0F4EB04208D0B0F1804F05D00D4E87
:10133000B04202D00C4EB04203D124F00304144357
:1013400001E044F001041A0724F0F00444EA1262B8
:1013500025F00A0301F00A0119438261016270BDA0
:10136000002C0140000400400008004010B5036A52
:1013700023F0100303628369046A23F4704343EA91
:10138000023224F0A00343EA01118261016210BD20
:1013900030B5046A24F0100404628469056A24F4F8
:1013A000407444EA022222F470444FF6FF7202EACB
:1013B00003322243A02425F0A00304EA01111943BB
:1013C0008261016230BD00002DE9F04104460068F1
:1013D0000169E26821F44051114301612169A0686B
:1013E0000843616908432168CA6841F20C639A4363
:1013F0000243CA6020684169A26921F44071114327
:1014000041614C4920686425322688423CD1FFF76F
:1014100005F900EBC00101EB001061688900B0FB29
:10142000F1F7FFF7FBF800EBC00101EB001061687A
:10143000B0468900B0FBF1F0B0FBF5F06FF0180199
:10144000484307EB800106EB0110B0FBF5F000F01C
:10145000F006FFF7E3F800EBC00101EB0010616854
:101460008900B0FBF1F0B0FBF5F006EB0016FFF7DA
:10147000D5F800EBC00101EB001061688900B0FBFA
:10148000F1F7FFF7CBF83BE0FFF7B8F800EBC0014E
:1014900001EB001061688900B0FBF1F7FFF7AEF8CF
:1014A00000EBC00101EB00106168B0468900B0FBA1
:1014B000F1F0B0FBF5F06FF01801484307EB800145
:1014C00006EB0110B0FBF5F000F0F006FFF796F820
:1014D00000EBC00101EB001061688900B0FBF1F086
:1014E000B0FBF5F006EB0016FFF788F800EBC00143
:1014F00001EB001061688900B0FBF1F7FFF77EF89F
:1015000000EBC00101EB001061688900B0FBF1F055
:10151000B0FBF5F06FF01801484307EB800108EBD2
:101520000110B0FBF5F0216800F00F003044886036
:10153000BDE8F081003801402DE9F041984617469A
:101540000E460446069D1DE0681C1BD02DB1FEF71B
:1015500003FFA0EB0800A84214D92068C16821F459
:10156000D071C1602068416921F0010141612020F2
:1015700084F8390084F83A00002084F83800032009
:10158000BDE8F0812068006836EA000004D0002041
:10159000B842D9D00020F3E70120F9E7FEE70000C8
:1015A0000FB4054B10B503A9044A029800F018F8CF
:1015B00010BC5DF814FB0000351700081400002073
:1015C00002E008C8121F08C1002AFAD1704770470C
:1015D000002001E001C1121F002AFBD1704700006A
:1015E0002DE9FF4F89B09B460446002506E02528DB
:1015F0000BD05A460B999047641C6D1C207800282C
:10160000F5D10DB02846BDE8F08F0027B84601227D
:10161000474900E0074314F8013F203B02FA03F07A
:101620000842F7D120782E2819D114F8010F47F07D
:1016300004072A280ED06FF02F022078A0F1300185
:1016400009290CD808EB880102EB410100EB0108E5
:10165000641CF2E70A98641C50F8048B0A90207806
:101660000028CED0642808D0692806D075281ED05E
:101670005A460B9990476D1C58E00A994FF00A0999
:1016800001C90A91002802DA40422D2102E0390501
:1016900004D52B218DF82010012103E0F90704D097
:1016A0002021F7E78A4608AE0DE00021FAE70A9903
:1016B0004FF00A0901C90A91F7E74946FEF744FDD0
:1016C000303106F8011D0028F7D1ADEB060000F11E
:1016D0002009780701D44FF00108C84502DDA8EBC6
:1016E000090000E000208046002706E008A85A46CE
:1016F000C05D0B9990476D1C7F1C5745F6DB04E0DD
:1017000030205A460B9990476D1CB8F10001A8F1A2
:101710000108F5DC05E016F8010B5A460B999047D5
:101720006D1CB9F10001A9F10109F4DC641C65E745
:101730000928010013B540F6FF73012269460248EB
:10174000FFF780FC00981CBD6800002008B5FEF77C
:1017500011FEFFF729FD2048816941F020018161D8
:10176000816901F020010091816941F004018161EA
:10177000806900F004000090FFF7C2FC1848174988
:10178000002701604FF4E131C0E901170C21C76067
:10179000C0E904718761C761FFF7EAFB10480021C7
:1017A0004038FFF7E6FA0FA0FFF7FAFE0C4E104C98
:1017B0004036A08861888842FBD3002506E000BF40
:1017C00056F825100BA0FFF7EBFE6D1C60888542D4
:1017D000F6DBA780EDE70000001002400038014072
:1017E000680000205374617274696E670A0000001B
:1017F0000000002025640A00000000000000000036
:1018000001020304060708090000000001020304A6
:10181000301800080000002028000000C015000853
:101820005818000828000020A00B0000D015000860
:101830000000C800000000000000000000000000E0
:101840000000000000000000010000001000000087
:081850000000000000A24A04A0
:04000005080000ED02
:00000001FF
